:020000040800F2
:100000000020002045450008494400084B440008F2
:1000100000000000000000000000000000000000E0
:100020000000000000000000000000004D44000837
:1000300000000000000000004F4400085144000888
:10004000954500080000000095450008954500080A
:100050009545000895450008954500089545000818
:1000600000000000954500089545000895450008EA
:1000700095450008954500089545000800000000DA
:1000800095450008000000000000000095450008AC
:1000900000000000954500085944000895450008F7
:1000A00095450008954500089545000895450008C8
:0800B000854400080000000077
:1000B80010B5064C2378002B07D1054B002B02D036
:1000C800044800E000BF0123237010BDA8020020EF
:1000D8000000000014A40008044B10B5002B03D046
:1000E8000349044800E000BF10BDC04600000000FE
:1000F800AC02002014A4000802780B78002A03D070
:10010800013001319A42F7D0D01A70470023C25CFF
:100118000133002AFBD1581E7047000002B4714613
:1001280049084900095C49008E4402BC7047C04632
:1001380003B47146490840004900095E49008E44ED
:1001480003BC7047002243088B4274D303098B42D7
:100158005FD3030A8B4244D3030B8B4228D3030C8F
:100168008B420DD3FF22090212BA030C8B4202D331
:100178001212090265D0030B8B4219D300E0090A59
:10018800C30B8B4201D3CB03C01A5241830B8B4262
:1001980001D38B03C01A5241430B8B4201D34B034B
:1001A800C01A5241030B8B4201D30B03C01A5241B0
:1001B800C30A8B4201D3CB02C01A5241830A8B4235
:1001C80001D38B02C01A5241430A8B4201D34B021E
:1001D800C01A5241030A8B4201D30B02C01A524182
:1001E800CDD2C3098B4201D3CB01C01A5241830936
:1001F8008B4201D38B01C01A524143098B4201D370
:100208004B01C01A524103098B4201D30B01C01A9A
:100218005241C3088B4201D3CB00C01A5241830814
:100228008B4201D38B00C01A524143088B4201D341
:100238004B00C01A5241411A00D2014652411046A1
:100248007047FFE701B5002000F0F0F802BDC04696
:100258000029F7D076E7704703460B437FD4002286
:1002680043088B4274D303098B425FD3030A8B4242
:1002780044D3030B8B4228D3030C8B420DD3FF22AC
:10028800090212BA030C8B4202D31212090265D07A
:10029800030B8B4219D300E0090AC30B8B4201D32D
:1002A800CB03C01A5241830B8B4201D38B03C01A74
:1002B8005241430B8B4201D34B03C01A5241030BEB
:1002C8008B4201D30B03C01A5241C30A8B4201D39C
:1002D800CB02C01A5241830A8B4201D38B02C01A47
:1002E8005241430A8B4201D34B02C01A5241030ABE
:1002F8008B4201D30B02C01A5241CDD2C3098B42A3
:1003080001D3CB01C01A524183098B4201D38B011F
:10031800C01A524143098B4201D34B01C01A5241C2
:1003280003098B4201D30B01C01A5241C3088B4207
:1003380001D3CB00C01A524183088B4201D38B00F2
:10034800C01A524143088B4201D34B00C01A524194
:10035800411A00D201465241104670475DE0CA0F6B
:1003680000D04942031000D34042534000229C462B
:1003780003098B422DD3030A8B4212D3FC22890135
:1003880012BA030A8B420CD3890192118B4208D30B
:10039800890192118B4204D389013AD0921100E06D
:1003A8008909C3098B4201D3CB01C01A5241830981
:1003B8008B4201D38B01C01A524143098B4201D3AE
:1003C8004B01C01A524103098B4201D30B01C01AD9
:1003D8005241C3088B4201D3CB00C01A5241830853
:1003E8008B4201D38B00C01A5241D9D243088B42A9
:1003F80001D34B00C01A5241411A00D2014663464C
:1004080052415B10104601D34042002B00D54942AF
:10041800704763465B1000D3404201B5002000F0EE
:1004280005F802BD0029F8D016E770477047C046A6
:100438008446100062468C461900634600E0C046B8
:100448001FB501F075FD002801D40021C8421FBD69
:1004580010B501F0C5FC4042013010BD10B501F0E7
:1004680067FD002801DB002010BD012010BDC0463B
:1004780010B501F05DFD002801DD002010BD012050
:1004880010BDC04610B501F0EDFC002801DC0020CD
:1004980010BD012010BDC04610B501F0E3FC0028D6
:1004A80001DA002010BD012010BDC04670B5002241
:1004B8000C4B04000D00FFF7EFFF002804D12000CB
:1004C800290002F0B5FB70BD064B00222000290070
:1004D80001F0FEFF02F0ACFB80231B069C46604443
:1004E800F1E7C0460000E04170B505000C000022AD
:1004F800002328002100FFF7B1FF002808D12800B9
:10050800210000F00FF802000B001000190070BD68
:1005180080231B06E118280000F004F8002342425B
:100528008B41F2E770B500220B4B0D00040001F07F
:1005380063FDFFF7BBFF060002F0E0FB0022074B5C
:1005480001F05AFD02000B002000290001F0C0FF55
:10055800FFF7ACFF310070BD0000F03D0000F04136
:1005680070B50600080002F099FB0022064B01F066
:1005780043FD0D000400300002F0C0FB2B002200F8
:1005880000F0FCFD70BDC0460000F041F0B5C64665
:1005980043025B0A4E0245004F00DA00C40F9C4636
:1005A800700A904600B52D0E3F0EC90FB6098C4251
:1005B8004BD0EA1B002A36DD002F61D0FF2D00D179
:1005C800ADE08023DB041E431B2A00DCD3E00120BE
:1005D8004346181A430100D48CE08001870938008B
:1005E80002F082FC05388740854200DCB6E02D1A0F
:1005F800B3483840430704D00F230340042B00D0EE
:100608000430430100D478E06A1CFE2D65D08001D7
:10061800430A9C46D2B26346D0051843E4072043F8
:1006280080BCB846F0BD002A35D07A1B002D00D01A
:10063800AFE04346002B00D1A7E0531E012A00D1AA
:100648002FE1FF2A69D01A00AAE0E91B002970DD12
:10065800002F37D0FF2D62D08023DB041E431B29D7
:1006680000DCB0E001204044430143D50135FF2DB3
:1006780033D00123934A0340400810401843B9E798
:10068800002E00D183E0511E012A00D1D8E0FF2AB4
:1006980045D00A0098E7FE276A1C174200D086E07A
:1006A800002D00D0B7E04346002B00D1F3E0002234
:1006B800002EB0D0981B430100D4FAE043460C004A
:1006C800F01A97E7002E00D1C8E04A1E012900D190
:1006D800AEE0FF2923D01100C1E70023FF229C468A
:1006E80099E7FE216A1C114277D0FF2AF5D0150040
:1006F80046447008430700D07EE7C308FF2D0ED09C
:100708005B025B0A9C46EAB285E7002E07D080228E
:10071800D203134203D0104201D10C000300002B76
:10072800DBD08020C00318434002430A9C46FF22C6
:1007380071E70029D5D07A1B002D60D14346002BE4
:1007480024D0531E012A73D0FF2AE7D01A001B2A8F
:1007580000DC85E001203D00801985E720233A0070
:10076800451B38000135EA405D1BA840431E9841EF
:10077800002510433EE7202330009B1A31009840A3
:10078800D140431E9841084322E70C00030015009E
:10079800B4E7FF2FC1D080234046DB0418438046CE
:1007A8001B2A51DD01200C003D00301A12E7434698
:1007B8009F1B7B012BD4002F00D010E700230024BF
:1007C80000229C4627E7202332003000CA40591AED
:1007D8008840431E9841104345E7002D4AD14346BF
:1007E800002B63D00022002E00D114E730004044D3
:1007F800430100D47EE7324B013518407AE7FF2FDA
:100808008CD080234146DB04194388469FE7434642
:100818000C00F71AE3E64246002A00D075E7002EDE
:1008280000D07AE78023DB0300249C46FF22F2E60F
:10083800300040440125430100D45BE7022518E756
:1008480043460125981BC5E6202344464046D4402C
:100858009A1A9040431E98412043A4E70D004DE7A3
:10086800202341464046D1409A1A9040431E984161
:10087800084370E74246002A00D14FE7002E00D116
:100888004DE78022D203134200D148E7104200D03E
:1008980045E7030043E7002E90D00C008446002271
:1008A800B9E643460C00F01A013593E68446002267
:1008B800B1E6002800D01DE7002300249C46AAE6E4
:1008C800FFFFFFFBFFFFFF7DF0B54F464646D646CC
:1008D8004502C0B547000C1C6D0A3F0EC60F002F1D
:1008E80000D170E0FF2F00D175E0EB008025ED040A
:1008F8001D43002399469A467F3F6002430A984663
:1009080063001B0EE40F002B4ED0FF2B46D042464F
:10091800D0008022D2040243904600227F3B31005F
:10092800FF1A4B466140C9B213430F2B00D9B5E0FB
:100938006E489B00C3589F460023984626004546AC
:1009480092465346022B00D189E0032B00D19EE04A
:10095800012B18D03B007F33002B69DD6A0704D0D8
:100968000F222A40042A00D004352A0103D5604BFF
:100978001D403B008033FE2B00DD70E0AD016D0AA9
:10098800D8B202E00E0000200025C0052843F60773
:100998003043E0BCBA46B146A846F0BD4346002BFA
:1009A8003FD10222FF3F03E04346002B2DD1012215
:1009B80031004B466140C9B213430F2B34D84D4820
:1009C8009B00C3589F46002D13D104239946033B2F
:1009D80000279A4691E7002D05D108239946063B42
:1009E800FF279A4689E70C239946093BFF279A4631
:1009F80083E7280002F078FA7627431F9D400023FA
:100A08007F4299469A463F1A77E7404602F06CFAC9
:100A18004246431F9A4076235B4290461B1A0022A7
:100A28007DE7FF2303227AE70E00FF200025ACE7CD
:100A38000120C01A1B28A6DC9E372A00BD40C240F0
:100A48006B1E9D4115436B0704D00F232B40042BCD
:100A580000D004356B0144D50120002595E7FF201F
:100A6800002592E780250026FF20ED038DE700236F
:100A780098468020C003054209D04346034206D168
:100A8800454605436D022600FF206D0A7DE780205C
:100A9800C00305436D02FF206D0A76E742466B01ED
:100AA8005001834219D21B220025013F01261C0058
:100AB8006D005B00002C01DB984201D81B1A3543FE
:100AC800013A002AF3D15A1E93411D433B007F335C
:100AD8000E00002B00DD41E7AAE71A2201251B1AA8
:100AE800E4E7AD0100206D0A4FE7C0464CA40008BA
:100AF800FFFFFFF78CA40008F0B54F464646D646E0
:100B080044024500C0B5640A0F1C2D0EC60F002D07
:100B180000D18DE0FF2D00D192E00023802099467E
:100B28009A46E400C00404437F3D7802430A98468D
:100B38007B001B0EFF0F002B00D170E0FF2B00D1B4
:100B480086E04246D00080227F3BED180023D20485
:100B5800024390469C4631004B467940681C0F2B57
:100B68001CD8764A9B00D3589F4639004446E24633
:100B78005346022B0FD0032B00D1D7E0012B37D1DE
:100B880000200024C0052043C9070843E0BCBA463A
:100B9800B146A846F0BDFF200024F3E7260C240444
:100BA800220C44462404240C434627001B0C5743BC
:100BB80074435A435E4312193B0C9B189C4203D959
:100BC80080225202944666443F041A043F0CD2190C
:100BD8009401671EBC411B0C920E9B1914439B0188
:100BE8001C431B0100D49BE0012362081C401443F2
:100BF80002007F32002A64DD630704D00F232340FC
:100C0800042B00D00434230103D502004C4B80325E
:100C18001C40FE2ABFDCA401640AD0B2B2E74346F6
:100C2800002B3DD14A4601331A4391469C4692E730
:100C3800002C29D104239946033B00259A4674E7E2
:100C4800002C1BD108239946063BFF259A466CE7E2
:100C58004346FF35002B0BD102234A461A439146DF
:100C68009C4678E753463100022B00D083E792E791
:100C780003234A461A4391469C466CE70C2399463F
:100C8800093BFF259A4650E7200002F02DF976250A
:100C9800431F9C4000236D4299469A462D1A44E70B
:100CA800404602F021F94246431F9A4000232D1A7C
:100CB80090469C46763D4EE780240021FF20E403C1
:100CC80060E701239B1A1B2B00DD59E722009E30A9
:100CD800DA4084401300621E94411C43630704D029
:100CE8000F232340042B00D0043463011AD50120BC
:100CF800002447E78020C003044209D0434603424A
:100D080006D14446044364023900FF20640A39E7E7
:100D18008020C003044364023100FF20640A31E7E5
:100D2800280065E7A4010020640A2BE78020C0039F
:100D380004436402FF20640A24E7C046CCA40008E8
:100D4800FFFFFFF7F8B5CE46474643025B0A4E025F
:100D5800DA009446720A914645004A0080B52D0E85
:100D68001F00C40F120EC90FB609FF2A5BD001205D
:100D780041408C4239D0A81A00285ADD002A6AD08E
:100D8800FF2D00D1D9E08022D20416431B2800DCB5
:100D9800E9E001206346181A430100D4B4E0800159
:100DA8008709380002F0A0F805388740854200DC42
:100DB800CCE02D1AB5483840430704D00F23034030
:100DC800042B00D00430430100D4A0E06A1CFE2D9F
:100DD80000D18DE08001470AD2B2D0053843E4073C
:100DE8002043C0BCB946B046F8BDA81A80460028C2
:100DF80045DD002A70D0FF2D00D19EE08023DB0462
:100E08001E4343461B2B00DCD2E001206044430113
:100E18007AD50135FF2D6BD001239D4A0340400848
:100E280010401843C8E7002E20D08C4223D0280059
:100E3800FF38002839D0571B002D00D09DE06346AD
:100E4800002B00D1DBE07B1E012F00D10DE1FF2F2D
:100E580071D01F0098E0002E00D1A7E0421E0128A3
:100E680000D1E6E0FF2868D010008FE7012041405C
:100E7800A14200D07FE7FF2040428046A844404678
:100E8800002838D0511B002D00D1AEE0FF2A00D138
:100E9800DFE080236046DB04184384461B2900DC1E
:100EA800D9E0012015008019B1E7FE206A1C104224
:100EB80071D1002D00D0A6E06346002B00D1D9E007
:100EC8000022002E00D188E7981B430100D4E1E0FE
:100ED80063460C00F01A6FE7002E00D1B7E002005D
:100EE800013A012800D19CE0FF2826D0904688E7E7
:100EF800FF22002771E7FE206A1C104264D0FF2AF7
:100F0800F6D0150066447008430700D056E7C308BA
:100F1800FF2D12D05B025F0AEAB25EE76246002A42
:100F280000D196E0002E08D08022D203134204D0CC
:100F38004846104201D10C004B46002BD8D08027E0
:100F4800FF031F437F02FF227F0A46E720233A0060
:100F5800451B38000135EA405D1BA840431E9841F7
:100F68000025104328E720231B1A32009E40C24068
:100F78003000431E984110430CE7FF2ADBD0802342
:100F88006046DB04184384461B2F56DD01200C0005
:100F98001500301A00E763469F1B7B013DD4002FE4
:100FA80000D0FEE600240022002716E70500AFE780
:100FB800320043464146DA4020235B1A9E40300007
:100FC800431E9841104321E7002DA7D16346002B0B
:100FD80059D00022002E00D1FFE6300060444301C2
:100FE80092D52A4B013518408EE76346002B47D02F
:100FF8004B1E012915D0FF292BD019004EE70C00F4
:101008004B463D0084E76246002A8BD1002E92D1E0
:1010180080270024FF22FF03DFE663460C00F71A4F
:10102800BFE6300060440125430100D46CE7022587
:10103800F2E663460125981BAEE620236446604627
:10104800FC40DF1BB840431E984120439FE7050042
:101058005EE74B4671E7202365466046CD40591A46
:101068008840431E984128431CE763460C0001252D
:10107800F01A91E6002E95D00C004F460022ACE6FF
:101088004B460D0044E74F460022A6E6FFFFFFFB54
:10109800FFFFFF7D002800D036E7002400279CE6EC
:1010A80041024200C30F490A0020120E7E2A03DDC6
:1010B8009D2A02DD094A98187047802000040143E0
:1010C800952A07DC9620821AD1404842002BF3D19A
:1010D8000800F1E7963A9140F7E7C046FFFFFF7F27
:1010E800F8B5002813D0C317C6185E40C40F3000E7
:1010F80001F0FAFE9E2305001B1A962B0FDC082828
:1011080001DD083DAE407602760AD8B202E000243E
:1011180000200026C0053043E4072043F8BD992B82
:101128000CDD05223100121AD1400A0001003000FE
:101138001B318840411E884102431600052D12DCF0
:1011480031000D4F3940720709D00F203040042874
:1011580005D004314A0102D59F2339405B1B890120
:101168004E0AD8B2D6E76A1F96403100024F39407E
:101178007207F4D0E9E7C046FFFFFFFBF0B54F4622
:101188004646D6460D000400C0B51F0011002803CE
:10119800620F400A10437A00520DE3003C03914667
:1011A800640AFA0F4F0F6E0027439246B846760D31
:1011B800ED0FC900954200D199E04C46341BA44676
:1011C800002C00DC7CE04A46002A00D1B8E0C54A81
:1011D800964200D11CE180223C0012041443A04630
:1011E8006246382A00DD61E11F2A00DDCCE1644651
:1011F8002022121B444694400F00A14664469140A9
:10120800E7404C464A1E91413C43424621436446CE
:10121800E240801A5C1AA3429B415F42C71B3B0213
:1012280000D4D0E07F027F0A002F00D1FFE0380011
:1012380001F05AFE01000839202322005B1A8F4072
:10124800DA408C401743B14200DAFFE0891B4B1C9F
:101258001F2B00DDA8E020223900D21A200094407C
:101268009140D840621E9441DF40002601430C4360
:10127800630709D00F232340042B05D0231DA34265
:10128800A44164423F191C003B0200D49EE0954BE8
:1012980001369E4200D1B7E0934AE40817407B0725
:1012A80071057F0223433F0B4A0D12053A43ED07B0
:1012B8002A4318001100E0BCBA46B146A846F0BD62
:1012C800002C4BD04C46A41BA446002E00D023E192
:1012D80004001C4300D1AFE16246541E012A00D12C
:1012E80015E2804DAC4500D1C8E1A4461BE14A4651
:1012F800B21A9446002A00DCACE04A46002A43D0E1
:10130800784A964200D1AFE180223C00120414438F
:10131800A0466246382A67DC1F2A00DC5FE14746A0
:10132800203AD7406246202A05D064464022121B44
:101338004446944021434A1E91410C003C4357E0E7
:101348003A000A4300D105E12200013A012C00D1FC
:1013580082E1644CA4455BD0944641E7634C771C1A
:10136800274200D0C4E004001C43002E00D069E1ED
:10137800002C00D1BFE144460C4300D0D0E1420725
:10138800DB081343C00829E03A000A4300D170E1A2
:1013980062466446013A012C00D1E0E0514CA44574
:1013A80000D161E19446B4E73A001F39CA40110000
:1013B800202B03D04022D31A9F403C43631E9C41FC
:1013C800002700260C43630700D053E7B446E4081F
:1013D8007B072343F808434A94451DD06246070318
:1013E80052053F0B520D60E744460C43621E944180
:1013F800E4189C429B415F423F183B02E3D5394BBE
:1014080001369E4200D0B5E03200002700234CE7A9
:101418004207DB081343C0081A00024300D1E1E188
:1014280080273F0307433F032E4A3F0B3DE7200039
:1014380001F05AFD010018311F2900DCFCE60838CC
:10144800844027000024B14200DBFFE6264A761AD2
:1014580017400DE7002A2FD04A46921B9446002ECB
:1014680000D1ADE01F4A914500D10FE1802212045E
:1014780010436246382A00DD0FE11F2A00DD80E1B3
:10148800644620221E00121B6746040093409440C5
:10149800FE405A1E9341F84034431C43804464186C
:1014A8008C42BF417F424E464744A6E742460A4324
:1014B80011004A1E9141ADE60C4C721C224200D02C
:1014C800A1E002001A43002E00D0FAE0002A00D161
:1014D80045E13A000A4300D046E14207DB081343DE
:1014E800C0087BE7FF070000FFFF7FFFFE07000043
:1014F80047465C1AC21BA342BF417F42B946170048
:101508004A46BF1A3A0200D58DE023003B4300D07B
:101518008AE60020002561E7B44CA14500D1ADE082
:101528008024240420436446382C3DDC62461F2C6A
:1015380000DDB7E020251E002D1B0400AB40AC40A9
:10154800D640D04042465D1EAB413443121A904605
:1015580023432CE04207DB081343C0083BE75C1831
:101568009C429B4140445B42C71801263B0200D481
:1015780029E702269E4A63081740012214401C43AB
:10158800FB071C437F0873E64446203AD440624672
:10159800202A05D067464022D21B47469740394348
:1015A8004A1E9141214335E60343581E8341CC1A14
:1015B800A142BF4143467F4255464E46DF1B2EE6B9
:1015C80002001A4300D1BDE062466446013A012C8C
:1015D80000D1E5E0854CA44558D0944649E76446D7
:1015E8002022121B444694400F00A14664469140B5
:1015F800E7404C464A1E91413C4342460C436146F3
:10160800CA408018F4E6794CA24200D1FDE6591888
:1016180099429B4140445F42C719FC07490816009C
:101628000C437F08CFE6CC1AA142BF4143467F4214
:10163800181A5546C71BF7E5C9087B0755460B43DB
:10164800F808C8E6002C00D081E043460B4315D1CA
:10165800802000250003E3E65C1AA3429B41C71BD8
:101668005B420126FF1ADAE54207DB081343C0088C
:10167800D2E64207DB081343C008ACE643464246BD
:10168800C9085B0755460B43D008C5E643464246A2
:101698005B07C9080B43D008BEE603431C00631E62
:1016A8009C41FCE60200203CE24014006246202AED
:1016B80003D04025AD1AA8400343581E8341234355
:1016C80075E7002AE2D03A000A43CDD04207DB088A
:1016D80013438022C0081203104206D0FC081442AB
:1016E80003D12000CB087A0713435A0FDB005207B7
:1016F800DB08134390E643460B4300D109E7434612
:101708004246C9085B0755460B43D00866E6CC1A23
:10171800A14289413F1A4942554601267F1A7EE572
:1017280042465C1A871AA34292415242BF1A3A02B1
:101738003DD5CC1AA1428941434649421F1A554614
:101748007F1A95E57B07C9080B43F80843E644462A
:10175800DB080C4330D142071343C0085CE67B0723
:10176800C9080B43F80839E65C189C429B41404481
:101778005B42C7183B0200D425E61D4B01261F40DB
:1017880021E60400203AD4406246202A04D04022B0
:101798006646921B904003435A1E93411C437EE6C3
:1017A8005C188C428941404449424718DDE62300D1
:1017B8003B4300D1ADE606E6440723438024C00836
:1017C8002403204208D04246D608264204D1554672
:1017D8003000CB0851070B435A0FDB00DB085207D8
:1017E800134319E60023014A1F005EE5FF070000C6
:1017F800FFFF7FFFF0B557464E464546DE46E0B54B
:10180800814605000C03480092461F0085B0240B52
:10181800400DCE0F002800D156E1D44B984200D19C
:1018280072E16B0FE4001C4380231B04234398469A
:10183800CF4BED009B4600239946834400933C031D
:101848007B005046240B5B0DFF0F002B00D11FE1DE
:10185800C64A934200D162E1C549420F8C46E40072
:1018680059461443802263441204CB1A14439B46FE
:10187800C200002033007B409A464B460F2B27D8E6
:10188800BC499B00CB589F46B246009B022B16D002
:10189800032B00D18EE2012B00D0D9E000230024D5
:1018A800002552461B052343D2071343280019007D
:1018B80005B0F0BCBB46B246A946A046F0BD002420
:1018C8000025AA4BEDE7BA46A04615000090DCE7D4
:1018D800444500D2C7E100D1C2E101235B429C46E6
:1018E8002E0040460025E3442302140E1C431B0C23
:1018F800994623041F0C1202494600920197FEF7ED
:10190800A7FC02007A430B04310C804619438A4233
:1019180007D901235B429C460919E0448C4200D850
:1019280007E2881A4946FEF793FC09048C463104FD
:101938006646019A090C4243030031438A4204D99E
:101948000919013B8C4200D8EDE1881A424612047D
:101958001A4390464146009B0E041B0C1F0002933D
:10196800009B360C1B04190C0B007343120C7E43AE
:10197800039151437A431F0CBC4676186644B14222
:1019880003D9802149028C466244310C8A183104FB
:101998001E04360C8E19904202D312D1B54210D2D1
:1019A8004346591E009B9C4665441F009D429B412F
:1019B8005B421B19C018844200D2A0E100D19BE110
:1019C8008846AE1BB542AD41801A6D42401B844229
:1019D80000D1D5E14946FEF73BFC019A0B0442438E
:1019E800310C050019438A4200D96CE1881A49462E
:1019F800FEF72EFC019A360442430904360C030014
:101A08000E43B24200D953E10398B61A02002D04DE
:101A18001D43029F2B041B0C5A437B439C46290CF5
:101A28004843130C844463447943984203D9802083
:101A3800400284466144180C12041B04120C41181D
:101A48009B188E4200D2FFE000D1FAE001231D432B
:101A5800494A5A44002A00DCAAE06B0700D03DE15D
:101A6800ED084346DB0106D54246444B1A409046F2
:101A78008022D2005A44424B9A4200DD1FE7434677
:101A88005B071D43434652055C02240B530D08E7D0
:101A98005246224300D17BE0002C00D1FAE020001E
:101AA80001F022FA02000B3A1D2301009B1A52464C
:101AB8000839DA408C40144352468A40314B584426
:101AC8009B4683440020D5E64B462343984644D0A2
:101AD800002C00D1CEE0200001F006FA010002003F
:101AE8000B391D235B1A49461000D9400838844039
:101AF8000B004D462343984685402348831A9B464E
:101B08000023994600939AE64B46234398461DD1F5
:101B180008239946063B0025834600938FE65246E4
:101B2800224309D1022349461943184B89469C464A
:101B380000240220E3449DE603234A461A43134B3C
:101B480091469C4652460320E34493E60C2399466B
:101B5800093BA0468346009371E604239946002377
:101B68009B4601330025009369E6C046FF07000045
:101B780001FCFFFF0CA50008FF030000FFFFFFFEAC
:101B8800FE070000F30300000DFCFFFF01F8FFFF54
:101B98004946012319438946002401206AE60023A7
:101BA80080249A4600258A4B24037AE601256D4253
:101BB80001239B1A382B00DD70E61F2B00DCBFE0E9
:101BC8001F2149428A1A4146D1400A00202B04D0DD
:101BD8004146804B5B4499400D436B1E9D41072352
:101BE8002A431D0000241540134200D1D4E00F21E0
:101BF80000231140042900D1CBE0111D91429241EC
:101C080052429B180A00190200D4C2E001230024A2
:101C1800002546E6802341461B03194208D01C4292
:101C280006D11C432403BA461500694B240B38E639
:101C38008024434624031C432403B246644B240BEC
:101C48002FE6002B00D103E7A619681EA64200D292
:101C58008DE08E4200D2A3E000D1B3E00500F5E6A6
:101C6800AA4200D939E64346DE0758086B081E43E6
:101C7800ED0739E6484601F037F901000200153151
:101C880020321C2900DC2CE74B460838834000250D
:101C9800984632E701F028F903001A00153220307F
:101CA8001C2A00DC00E75446083B00229C4005E75C
:101CB8003619013BB44200D9A6E6B24200D8A3E6E1
:101CC800831E3619A0E60919013D8C4200D98DE61C
:101CD8008A4200D88AE6851E091987E60F232B4019
:101CE800042B00D1BCE605235B42AB429B41043583
:101CF8005B42ED089844B4E6AF4200D960E6824200
:101D080004D800D05CE6AE4200D859E602235B4214
:101D18009C46009BE0449C4665449D429B415B4237
:101D28001B19C0184DE68A4200D80EE6831E091911
:101D38000BE68A4200D8F4E5831E98460919F0E5B7
:101D48002549280059448D4042468A40691E8D41E4
:101D58004146D840D94002432A430B00510700D1DD
:101D680051E70F211140042900D046E74BE7050051
:101D78008E4200D06AE6009A934200D066E667E693
:101D8800164A5A44002A00DC10E70123002598442B
:101D980067E65D075B021C0BD2080023154380E54C
:101DA8000098023D42008242BF417F423C193619E9
:101DB8000092DDE78024434624031C432403044B9C
:101DC800240B6EE5009A9A42EAD30500D3E7C04691
:101DD800FF0700003E0400001E040000FF0300008F
:101DE800F0B54E464546DE4657469046E0B51700E4
:101DF8001A03120B0500844619480E034C0091463D
:101E08005A00DB0F9B46360B640DC90F520D8442F6
:101E180019D0824210D0012094420ED14E450CD1E7
:101E28000120C44509D1594517D0002C05D13000EF
:101E38002843431E984100E00120F0BCBB46B2464F
:101E4800A946A046F0BD330001202B43F5D1A2429C
:101E5800F3D14B463B43F0D1E2E70020EDE7C04623
:101E6800FF070000F0B54746CE46040018001600EC
:101E78001B031B0B2D4D4A00994680B543000F03E9
:101E8800A446B0463F0B520DC90F5B0DC00FAA42C6
:101E980021D0AB4213D0002A22D13C43002B02D1DF
:101EA8004D462E4322D0002C10D0814222D0022051
:101EB800013908400138C0BCB946B046F0BD4D46AE
:101EC8002E4329D1002AF0D13C43EED10028F2D18B
:101ED80001204042EFE73D0025431DD19342EED05B
:101EE800002BE2D14C462643DFD1E0E70020002C4E
:101EF800E1D0DCE79A420ADCE8DB4F45D7D80ED0C0
:101F080000204F45D7D20029E2D00800D3E743424A
:101F1800584140000138CEE702204042CBE7C44593
:101F2800C5D80020C445C6D2EDE7C046FF0700006B
:101F3800F0B54746CE460400180016001B031B0BDD
:101F48002C4D4A00994680B543000F03A446B0467D
:101F58003F0B520DC90F5B0DC00FAA420DD0AB420B
:101F680010D0002A27D13C43002B11D14D462E43D7
:101F78000ED10020002C15D00EE03D00254310D1D5
:101F8800934218D14D462E430BD1002A02D13C432F
:101F9800002C0BD0814214D00220013908400138AE
:101FA80000E00220C0BCB946B046F0BD0028F9D117
:101FB80001204042F6E7002BECD14C462643E9D1FC
:101FC800EAE79A4204DD4342584140000138E9E714
:101FD8009A42EBDB4F45DFD806D000204F45E1D2CF
:101FE8000029E5D00800DDE7C445D5D80020C44560
:101FF800D8D2F5E7FF070000F0B557464E464546EC
:10200800DE46E0B598460C034B000600924687B0C2
:10201800240B5B0DCF0F002B00D15CE1D94A934212
:1020280000D175E1420FE4001443802212041443E6
:10203800D54AC500944663440093002399469B46BD
:10204800434642461E03D20F5B0050469046360B6D
:102058005B0D00D120E1CB4A934200D162E1CA492D
:10206800420F8C4600996344F6008C461643802242
:102078009C44120463461643C20000200093009952
:10208800434601318C4649467B4001930F2926D8A7
:10209800BE4B890059588F464346019334001500BA
:1020A80083465B46022B16D0032B00D103E2012B9B
:1020B80000D0CDE0002200240025019B1205224318
:1020C800DB071A432800110007B0F0BCBB46B24634
:1020D800A946A046F0BD00240025AA4AEDE7280C31
:1020E8002D042D0C2B00110C1204120C534398468E
:1020F80013002F00434399464F434F44BB4647467E
:102108000B003F0CBA464343DA440293D14504D945
:1021180080277F02B9464B44029353461B0C9B46CB
:1021280053461F0443461B041B0C98463B0043447C
:102138000493330C3604360C9846330043439946CF
:10214800434643432F009A46434677435D43380C42
:102158004D444519A94503D980235B029946CA44D1
:102168003F04280C3F0C2D04ED19270C2404240CE3
:102178000300200050437A4391463A0053440593A4
:10218800030C9A464A43614349445144AB44894548
:1021980003D980235B0299464A4400040B0C000CC7
:1021A8000904091820009946434670435C437E435E
:1021B8005F43030C9846A41944444A440397A64233
:1021C80004D980235B029846474403972304029E60
:1021D8009A46059B5E449846AE42AD4176188E42BB
:1021E80089410004000C504440446D424719B846E8
:1021F800934649428946C344D94498428041A845F8
:10220800AD4193459241894589416D4240422843F9
:10221800240C524249420A43039B00198018C718EC
:102228004B46DC0D049B75021D436A1E95414B46C7
:10223800F60D7F0235435A023C431543FB0100D497
:102248001CE101216A080D401543E20715436408A3
:102258004F496144002900DCB0E06B0709D00F2228
:102268002A40042A05D02A1DAA42AD416D426419AC
:102278001500E30104D58021464AC9001440614491
:10228800454A914200DD26E76207ED0864024905E8
:102298001543240B4A0D10E75246324300D17FE024
:1022A800002E00D1DCE0300000F01EFE02000B3AE8
:1022B8001D2301009B1A52460839DA408E40164306
:1022C80052468A40009B3549181A03008C466344DD
:1022D80000200093D3E6250005434AD0002C00D106
:1022E800B0E0200000F000FE010002000B391D23C1
:1022F80010005B1A3100350008388440D940854009
:102308000C432648831A0093002399469B4697E678
:102318000500254326D10822009302230024914674
:102328009B468DE65246009B324310D11549002644
:102338008C46634449460093022319438946022088
:102348009DE65B460197022B00D0ADE6C3E60D4A39
:102358000320944663444A46009303231A43914654
:1023680052468CE60C2200930323050091469B46B7
:1023780066E60423994600230093013300249B4614
:102388005EE6C046FF07000001FCFFFF4CA5000801
:10239800FF030000FFFFFFFEFE0700000DFCFFFF2C
:1023A80049460123194389460026012067E6002390
:1023B80080240025434A019324037EE60120401A25
:1023C800382800DD76E61F285BDD1F2223005242F5
:1023D800511ACB401900202803D03B4A624494404C
:1023E80025436A1E95412A000A4307210D0000244F
:1023F800154011425BD00F2100241140042953D00D
:10240800111D914292415242A4180A0023024BD551
:1024180001220024002550E680231B031C4209D01A
:102428001E4207D133431C0343461500240B254A9B
:10243800019342E68022120314432403214A240B09
:1024480001973AE600F050FD0100020015312032F4
:102458001C2900DC4BE7340008380025844050E78D
:1024680000F042FD03001A00153220301C2A00DC5F
:102478001EE75646083B00229E4023E7009B9C46E9
:10248800E6E61249220061442E008D408A40C6408B
:10249800691E8D4132432A43C4405307B6D00F21E9
:1024A80011400429ACD1B1E765076402240BD208B6
:1024B8001543002201E68022120314432403014A33
:1024C800240BFAE5FF0700003E0400001E0400008C
:1024D800F8B557464E464546DE46E0B51E0017009D
:1024E8004A000B03520D5B0A9046420F1A43CD0F68
:1024F800CD4C3103C300944670007A0F490AFF009F
:102508009A46B946400DF60F1143A04200D1B1E0FA
:1025180001225640B346B54200D188E04246121A1D
:10252800002A00DCAEE0002800D1C1E0BE488045AA
:1025380000D151E1802000040143382A00DD7BE10D
:102548001F2A00DDEEE120203E00801A0C00D64054
:10255800D140874062468440521A781E874194468B
:1025680034432743DC1BA3429B4162465B42D31A98
:1025780099464B461B0200D418E14B465802430AC1
:1025880099464B46002B00D137E1484600F0ACFC99
:10259800010008392023220048465B1ADA408840A7
:1025A8008C4043461043884500DD36E1C91A4B1C70
:1025B8001F2B00DDEAE020222600D21A01009440F9
:1025C800DE40D84000239140621E944181469846DF
:1025D80031430C43630709D00F232340042B05D054
:1025E800231DA342A4416442A1441C004B461B0284
:1025F80000D4DEE041468C4B0131994200D1E7E03E
:102608004B468A48E4080340180049055B07400226
:1026180023434A0D040B1205ED0722432A431800F1
:102628001100F0BCBB46B246A946A046F8BD4246DA
:10263800121A002A52DD002800D19CE0A04500D1E2
:10264800CAE0802000040143382A00DD49E11F2A3E
:1026580000DC97E110000E002038C640202A04D084
:102668004020821A91400F43B9464C46621E94415D
:1026780034433AE10A003A4328D0B346B5422BD056
:102688006B4A4244002A5DD042464446821A002CD6
:1026980000D0F5E065461D4300D19CE1551E012A96
:1026A80000D1FBE1604CA24200D1BDE12A00F0E07C
:1026B8000800384300D1C3E0501E012A00D1A8E128
:1026C800594CA24200D187E0020036E70122564069
:1026D800B346B54200D021E7554A4244002A00D10A
:1026E800B5E042464446821A002C00D138E14E4EED
:1026F800B04200D1DEE18026644636043443A44665
:10270800382A00DD96E11F2A00DD24E22026B41ACB
:10271800A24664465646B440A1461C004E46D440E4
:10272800264334005646B3405E1EB3411C436346FD
:10273800D340C918E419BC42BF417F42B94680461C
:102748008944D8E040463B4C0130204200D0B4E0F8
:102758004046002800D044E16046184300D190E18B
:102768000800384300D0AAE16146DB0849070B435B
:102778006146CC0827E00800384361D0501E012A82
:1027880000D139E1A24227D002005DE702001F39DB
:10279800CA401100202B03D04022D31A984004438A
:1027A800631E9C410023994698460C43630700D05A
:1027B80012E74B464A46E4085B072343D4084246DF
:1027C80019498A420ED024035205240B520D22E7E0
:1027D8000A00002400231EE7DB0862465207134361
:1027E8006246D4081A00224300D1FCE18022120379
:1027F800144324030C4A240B0DE7200000F074FB5B
:10280800010018311F2900DCC4E60838844043461B
:1028180020000024884500DCC8E6044A5B1A104002
:1028280098468146D6E6C046FF070000FFFF7FFFB7
:1028380001F8FFFFFE0700000F437A1E974191E65B
:102848006146DB0849070B436146CC08B8E74046B8
:10285800D34C0130204200D0A2E04046002800D0EE
:1028680001E16046184300D15EE10800384300D01A
:102878005FE16146DB0849070B436146CC08A2E7E4
:10288800C84DA84200D1CFE0802564462D042C43D2
:10289800A446382A56DC1F2A00DDD1E020251E0078
:1028A800AD1A6446AB40AC40D6405D1EAB413443E4
:1028B80023436446D440091B49E06046DC1B461AA2
:1028C800A34280414042814630004E46801B8146EB
:1028D800000276D44B46234300D052E6002400255C
:1028E80071E739430C00621E9441E4189C429B41F5
:1028F8005B42634499464B461B0200D456E70123CA
:102908009C46A84BE044984538D04B46A64801223F
:1029180003401800630814401C43C3071C434308C2
:10292800994657E610000E002038C640202A04D0E9
:102938004020821A91400F43B9464F467A1E97416C
:1029480037430FE662461A4313005A1E9341FC1A96
:10295800A742BF417F42CB1B99465D46804608E6A9
:1029680066461E4300D1BEE0561E012A00D109E189
:102978008C4CA24200D119E13200C1E64246002443
:10298800002348E620200C00801A3E00874084403F
:10299800D640781E8741D14034433C438C44A4E759
:1029A800804A904200D1E9E0DF199F429B4161448F
:1029B8005B42C918CC077F084B08994680463C43C0
:1029C800F4E6FC1AA742BF4163467F42C91ACB1BF3
:1029D80099465D46D5E5FF084B075D463B43CC0865
:1029E800EEE662461A4300D082E00B003B431BD15F
:1029F800802400252403F9E6DC199C429B416144AC
:102A080089465B4299444B461B0244D401239846AD
:102A1800CCE6DC1B6246A3429B41511A5B42CB1AAF
:102A2800994601239846A4E5FF084B075D463B43BA
:102A3800CC08D7E662461A431400631E9C4179E627
:102A480015006446203DEC40A046202A05D04025CC
:102A58006446AA1A944023439A465446631E9C41EE
:102A68004346234373E762461A4323D00A003A4396
:102A780000D0A0E06246DB08520713436246D40840
:102A8800B0E60B003B4300D128E7FF084B075D4643
:102A98003B43CC0897E60223984636E7FC1AA74240
:102AA800BF4163467F42C91ACB1B994601235D4645
:102AB80098465EE54B07FF083B43CC0892E6DC1BD3
:102AC8006046A342B641401A7642801B8146000206
:102AD80060D5FC1AA742BF4163467F42C91ACB1B87
:102AE80099465D4676E5FF084B073B43CC0867E609
:102AF8000A00DB083A4300D16FE6624652071343E7
:102B08006246D40880221203144207D0C808104233
:102B180004D15D460400FB0849070B435A0FDB004C
:102B2800DB08520713435DE64B07FF083B43CC081D
:102B380049E6DC199C429B41614489465B429944C1
:102B48004B461B0200D431E64A46174B1A40012374
:102B5800914698462AE616006446203EF440A04670
:102B6800202A05D040266446B21A944023439A4648
:102B78005446631E9C4143461C43DBE50200002487
:102B8800002348E5DC19BC42BF41614489467F42C5
:102B9800B94438E74B46234300D19FE606E6C046D2
:102BA800FE070000FF070000FFFF7FFFFF084B073D
:102BB8003B43CC0816E66246DB08520713436246DD
:102BC800D40880221203144207D0C808104204D146
:102BD8005D460400FB0849070B435A0FDB00520708
:102BE800DB081343FEE50023014A1C0013E5C04639
:102BF800FF07000070B505000C481C0316005B00B9
:102C08000A034900120B490D240B5B0D814208D0C1
:102C1800064A0020934203D120003043431E9841C6
:102C280070BD01202A43FBD1F2E7C046FF07000030
:102C38000A0030B5134C530009030500090B0020A6
:102C48005B0DD20FA34204DD0F48834202DD0F4B18
:102C5800D01830BD8020400301430D48C01A1F28FA
:102C680008DD0C48C31AD9400B005842002AF0D19D
:102C78001800EEE7084CC540A446634499400B0091
:102C88002B43F2E7FE0300001D040000FFFFFF7F57
:102C98003304000013040000EDFBFFFF70B50028AB
:102CA80016D0C317C5185D40C40F280000F01CF9E2
:102CB800114A121A0A2816DC03002E0015339E400A
:102CC8000B23181AC54052052D032D0B530D03E095
:102CD80000240023002500261B052B43E40723437B
:102CE8003000190070BD0B38854052052D030026B1
:102CF8002D0B530DF0E7C0461E04000010B5041E4E
:102D080010D000F0F1F80F4B1B1A0A2811DC0B2227
:102D18002100121AD14015300A035B058440120BBA
:102D28005B0D01E0002300221B051343200019005E
:102D380010BD22000B3882405B0512030024120BE1
:102D48005B0DF1E71E04000070B543004602C40F96
:102D5800FE201B0E591C750A08420CD0E022920076
:102D680094466D07360B63441B053343E40723433E
:102D78002800190070BD002B14D1002D1BD028008D
:102D880000F0B2F80A281CDC0B232E001B1ADE40C8
:102D9800030015339D400E4A3603121A5205360BAE
:102DA800530DE1E7002D09D08022360B1203094BA1
:102DB8006D071643D8E700230026D5E70026054B04
:102DC800D2E703000B3B9D402E000025E3E7C046F9
:102DD80089030000FF07000002004B00F0B55B0DFF
:102DE8000C033D4E640A400F5F1CC90F0443D50015
:102DF80037420AD039481E18FE2E16DDFF2000245F
:102E0800C0052043C9070843F0BD002B06D12C4359
:102E180026D005229201540AD8B2F1E72543EDD015
:102E28008020C0030443FF20EAE7002E1BDD920147
:102E3800531E9A41E4006D0F22432A43530748D09A
:102E48000F231340042B00D004328023DB041340EB
:102E58003FD0701CFE2ED1D09201540AC0B2CFE7E9
:102E680000200024CCE73200173222DB8020000447
:102E780020431E24A41B1F2C1DDD02225242961B38
:102E88000200F2401600202C04D0154A94466344F0
:102E9800984005432A00531E9A413243002653079F
:102EA800CED180241300E404012023402242D3D150
:102EB800B0E70023ADE70B4A94462A00E24014002D
:102EC8002A0063449A409840551EAA41024322436F
:102ED800E4E733009EE7C046FE07000080FCFFFFE2
:102EE800A2FCFFFF82FCFFFF1C2101231B04984268
:102EF80001D3000C10391B0A984201D3000A083983
:102F08001B09984201D30009043902A2105C401839
:102F18007047C046040302020101010100000000DD
:102F280000000000054B82B05A6B02435A635B6B8A
:102F380018400190019B02B07047C0460010024043
:102F48004022034BD9691142FCD098627047C046B1
:102F58000038014070B505000024285D002800D124
:102F680070BD0134E4B2FFF7EBFFF6E7F0B52B4C88
:102F78008DB0200001F0C2F900284DD0284E200065
:102F8800310001F0D8F9274D2000290001F0DFF9C0
:102F98002549200001F0E7F92449200001F007FA4B
:102FA8002349200001F0F7F92249200001F0E7F950
:102FB800214F2000390001F006FA2049200001F0D5
:102FC8000EFA1F49200001F016FA2B7836780B9379
:102FD800184B1C4D1B780893154B1B780793134B04
:102FE8001B780693154B1868FFF7AEFE0490059101
:102FF8003868FFF7A9FE029003910B4B32001B784B
:103008001149009328000B9B02F036FF2800FFF7B8
:10301800A1FF200001F074F90DB0F0BDCC02002032
:103028002C030020380300209E030020C802002043
:1030380039030020A00300203003002034030020BF
:10304800C40200203A0300208CA5000870B5FA26B7
:103058007600050001F040FB300001F05BFB202307
:10306800074C29002361042001F0BCFB300001F06B
:1030780051FB022263699343636101F03FFB70BD1A
:103088000020024070B50C0005001F20FFF7DEFF8E
:1030980001F022FB29002200E317012001F06EFB5A
:1030A80001F02CFB70BD000070B50422012602253A
:1030B8001024202040210C4B9E629D629A62921837
:1030C8009A6278329C62986299629A62A023DB05C0
:1030D8009E629D629C62986299629A6280329A624C
:1030E800802212029A6270BD0004005010B5174A7F
:1030F800174B14681B78611E8B4207D05168013941
:103108008B4203D0916801398B4204D111490120C7
:1031180009783B2919D0A34204DB0F49012009682B
:103128008B4212DB51688B4204DB0B490120496852
:103138008B420ADB92680020934206DB0649012293
:1031480089688B4200DB0200100010BD540000208B
:10315800380300209E0300206C00002010B5174A99
:10316800174B14681B78611E8B4207D051680139D0
:103178008B4203D0916801398B4204D11149012057
:1031880009783B2919D0A34204DB0F4901200968BB
:103198008B4212DB51688B4204DB0B4901204968E2
:1031A8008B420ADB92680020934206DB0649012223
:1031B80089688B4200DB0200100010BD4800002027
:1031C800380300209E0300203C00002010B5174A59
:1031D800174B14681B78611E8B4207D05168013960
:1031E8008B4203D0916801398B4204D111490120E7
:1031F80009783B2919D0A34204DB0F49012009684B
:103208008B4212DB51688B4204DB0B490120496871
:103218008B420ADB92680020934206DB06490122B2
:1032280089688B4200DB0200100010BD3C000020C2
:10323800380300209E0300203000002010B5174AF4
:10324800174B14681B78611E8B4207D051680139EF
:103258008B4203D0916801398B4204D11149012076
:1032680009783B2919D0A34204DB0F4901200968DA
:103278008B4212DB51688B4204DB0B490120496801
:103288008B420ADB92680020934206DB0649012242
:1032980089688B4200DB0200100010BD300000205E
:1032A800380300209E0300202400002010B5174A90
:1032B800174B14681B78611E8B4207D0516801397F
:1032C8008B4203D0916801398B4204D11149012006
:1032D80009783B2919D0A34204DB0F49012009686A
:1032E8008B4212DB51688B4204DB0B490120496891
:1032F8008B420ADB92680020934206DB06490122D2
:1033080089688B4200DB0200100010BD24000020F9
:10331800380300209E0300201800002010B5174A2B
:10332800174B14681B78611E8B4207D0516801390E
:103338008B4203D0916801398B4204D11149012095
:1033480009783B2919D0A34204DB0F4901200968F9
:103358008B4212DB51688B4204DB0B490120496820
:103368008B420ADB92680020934206DB0649012261
:1033780089688B4200DB0200100010BD1800002095
:10338800380300209E0300200C00002010B5174AC7
:10339800174B14681B78611E8B4207D0516801399E
:1033A8008B4203D0916801398B4204D11149012025
:1033B80009783B2919D0A34204DB0F490120096889
:1033C8008B4212DB51688B4204DB0B4901204968B0
:1033D8008B420ADB92680020934206DB06490122F1
:1033E80089688B4200DB0200100010BD0C00002031
:1033F800380300209E0300200000002010B5184A62
:10340800184B14681B78611E8B4207D0516801392C
:103418008B4203D0916801398B4204D112490120B3
:1034280009783B291AD0A34204DB10490120096816
:103438008B4213DB51688B4204DB0C49012049683D
:103448008B420BDB916801228B4204DB0749100099
:1034580089688B4202DB00209A42404110BDC04679
:1034680000000020380300209E0300206000002098
:1034780010B52D4A2D4B14681B78611E8B4207D05E
:10348800516801398B4203D0916801398B4204D1CC
:103498002749012009783B2945D0A34204DB254967
:1034A800012009688B423EDB51688B4204DB2149CD
:1034B800012049688B4236DB9268934204DB1D4A3F
:1034C8000120926893422EDB012083422BD91A4AAD
:1034D8001468611E8B4207D0516801398B4203D0B2
:1034E800916801398B4204D11149012009783B299F
:1034F80019D0A34204DB1149012009688B4212DB71
:1035080051688B4204DB0D49012049688B420ADB74
:1035180092680020934206DB0849012289688B42A1
:1035280000DB0200100010BD6000002038030020FE
:103538009E030020540000206C000020480000205A
:1035480010B5FFF7D3FD002807D0FFF7ADFD012325
:10355800334A9361A022D2059361FFF7FFFD00284B
:1035680007D0FFF7A1FD02232D4A9361A022D205BF
:103578009361FFF72BFE002808D0FFF795FD042282
:10358800274B9A61A0230C32DB059A61FFF756FEA0
:10359800002808D0FFF788FD0822214B9A61A02354
:1035A8001832DB059A61FFF781FE002808D0FFF783
:1035B8007BFD10221A4B9A61A0233032DB059A61F9
:1035C800FFF7ACFE002808D0FFF76EFD2022144B51
:1035D8009A61A0236032DB059A61FFF7D7FE0028C5
:1035E80008D0FFF761FD40220D4B9A61A023C0323D
:1035F800DB059A61FFF702FF002809D0FFF754FDA9
:103608008022074B9A61A0238022DB0512029A616F
:10361800FFF72EFF002801D0FFF746FD10BDC0467A
:103628000004005010B592B03422002105A801F022
:10363800B9FE1022002101A801F0B4FE802080000C
:1036480001F0E0F880235B000893002309930E93B0
:1036580008330F9380239B02109380230224402277
:103668009B0505A805940A920C940D94119301F0FA
:10367800F5F8002801D072B6FEE7072301938023EE
:1036880004901B01012101A80294039301F046FB59
:10369800002801D072B6FEE712B010BDF0B599B09F
:1036A80010AE00F09DFFFFF7BDFF1822002130008B
:1036B80001F078FE0420FFF735FC0120FFF732FC0B
:1036C800A0270220FFF72EFC10240123022120222C
:1036D8008020FF058E4DBB62B962BC62BA62921847
:1036E800BA62B8620193AB62A9622B0004259D629D
:1036F800FC35BD62874DAA6280252D02BD62082572
:103708009D6280259C6224199C629A629862019B42
:1037180000242D0210951D0071607E4831007361F0
:10372800B460F460346101F051FC31003800109548
:103738007560B460F460346101F048FC022138001F
:10374800109131007560B460F460346101F03EFCA2
:1037580010233100380010937560B460F460346150
:1037680001F034FC20223100380010927560B460FA
:10377800F460346101F02AFC4022310038001092D4
:103788007560B460F460346101F020FC8020310081
:10379800109038007560B460F460346101F016FC74
:1037A80031005B4810957560B460F460346101F0D5
:1037B8000DFC02215648109131007560B460042553
:1037C800F460346101F002FC012331005048109587
:1037D8007360B460F460346101F0F8FB01233100D8
:1037E8003800FC3510951D007360B460F4603461D6
:1037F80001F0ECFB402231001092464875608025AC
:10380800B460F460346101F0E1FB01233100380059
:103818002D02109573600825B460F460346101F0DE
:10382800D5FB012331003A4810951D007360B46040
:10383800F460346101F0CAFB102135481091310061
:103848007560B460F460346101F0C0FB2021304839
:10385800109131007560B460F460346101F0B6FB1A
:10386800402231002A4810927560B460F4603461D7
:1038780001F0ACFB80203100109025487560B460E1
:10388800F460346101F0A2FB21001422300001F041
:1038980089FD8021204DC9022A6C0A432A642B6CB9
:1038A800C5220B401D49029308009200029B8B58C9
:1038B8001B490B4083508022D2030260194B310010
:1038C8003380F4231848FF337460B360F4603461C4
:1038D80001F064FC8020144A21001368034313603C
:1038E8003000202201F05EFD2100182204A801F01A
:1038F80059FD210014220BA801F054FD01230AA848
:103908000A9301F0B9FA041E10D072B6FEE7C04659
:1039180000040050000800500010024000E100E0E0
:10392800FFFF00FFFF7C00000048014080212A6C57
:10393800C9010A432A642B6C01200B400393039BA3
:10394800FFF7F0FA802301209B000493FF3BFF3B25
:10395800099004A93800059306940794089401F087
:1039680035FB80230120DB0004930223099004A97E
:103978003800059306940794089401F027FBE12387
:103988005B02109473600C23B460F4603461B4611A
:10399800F4615D4C31002000736101F03FFCEFF3EE
:1039A8001082012080F31088A368DB00DB08A36085
:1039B80082F31088EFF3108280F310885349A368CC
:1039C8000B40A36082F31088514A23681340236098
:1039D8006368504A13402A226360A3689343802295
:1039E800A3602368920303432360E3691342FCD076
:1039F8008021E369C9030B42F7D02022002130005F
:103A080001F0D0FC182200210AA801F0CBFC80218B
:103A1800EA6B89020A43EA63EB6B01200B400493CB
:103A2800049BFFF77FFAA020002404230227012526
:103A38000AA9C0050A930B970C940D940E940F9540
:103A480001F0C4FAA02008230AA9C0050A930B971D
:103A58000C940D940E940F9501F0B8FAC722FF212B
:103A68002D48920083588B43835080235B05036065
:103A780096239B01109473600C23B460F460346146
:103A8800B461F461254C31002000736101F0C6FB7C
:103A98006368204A802113402A226360A36889034F
:103AA8009343A36023681D4380232560DB03E269F9
:103AB8000A42FCD0E2691A42F9D08022184C174910
:103AC800D200200000F082F801231649164D0A683A
:103AD80016481A430A60CA681343CB607B212860E2
:103AE800FFF7D0FA2B6896251A68114B6D001A70EB
:103AF800200000F08DF8FFF739FAFFF721FD2800C4
:103B080001F0FAFBF4E7C04600380140FFFFFFF17F
:103B1800FFFFFFDFFFB7FFFF00E100E000440040C8
:103B2800CC020020004801402803002000F80008CB
:103B38009F0300200100421C002010B513782A2B97
:103B480001D00D2B00D110BD002B05D0541A802CAC
:103B580002DC58400132F1E70020F4E770B5051C9B
:103B6800FDF79EFA6421FCF777FBFDF7B9FA0749E0
:103B7800041CFCF7C1FF011C281CFDF7E3F80449ED
:103B8800FCF7A2FE211CFCF701FD70BD0000C84235
:103B980000007042036810B5DA690400920604D583
:103BA800596A437C002B04D010BD012252421A628C
:103BB800FAE7C2898389013A9342F5DA5A1C82816D
:103BC8008268D15400F02CFD6060EDE770B50D00FF
:103BD800816804001600002901D0002070BD582219
:103BE800043001F0DFFB3000256001F0D1FBA0605C
:103BF8000028F2D0E681EFF31082012080F31088CC
:103C0800202329680B432B6082F31088E6E7000025
:103C1800F0B50400A5B0277C002F00D0C4E1012333
:103C28002374A389002B00D1BAE100F0F9FC636882
:103C3800C01A632800D8B3E1CB4BA068196802F01A
:103C4800D3F9061E34D0033E3378242B30D12A21F1
:103C5800300002F0A7F9051E2AD0437802AA137093
:103C680083783900537004A8802201F09BFBAA1BBB
:103C78000332802A1CD8310004A802F0A1F904A854
:103C8800FFF758FFB949050003AA02A8039702F0F5
:103C980013F9039B9D420BD1B54F04A8390002F0DC
:103CA800F3FF02260500002D00D081E10123637493
:103CB800AD4FA068796802F097F9061E36D0033E2A
:103CC8003378242B32D12A21300002F06BF9051EFB
:103CD8002CD0437802AA137083780021537004A86B
:103CE800802201F05FFBAA1B0332802A1ED8310014
:103CF80004A802F065F904A8FFF71CFF00230500DB
:103D08009A4903AA02A8039302F0D6F8039B9D429E
:103D18000CD1974904A802F0B7FF022305000A2630
:103D28000193002D00D0E2E101236374B968A06813
:103D380002F05AF9061E49D0033E3378242B45D1A8
:103D48002A21300002F02EF9051E3FD0437802AA3E
:103D5800137083780021537004A8802201F022FB9D
:103D6800AA1B0332802A31D8310004A802F028F9AE
:103D780004A8FFF7DFFE002605007C4903AA02A875
:103D8800039602F099F8039B9D421FD1784D04A831
:103D9800290002F079FFB04216D02900300002F065
:103DA80073FF0378303B092B0AD801F0BBFAFFF701
:103DB80013F8220001234032117860640B4313701A
:103DC8002900002002F060FF01236374F968A068ED
:103DD80002F00AF9061E49D0033E3378242B45D158
:103DE8002A21300002F0DEF8051E3FD0437802AAEF
:103DF800137083780021537004A8802201F0D2FA4E
:103E0800AA1B0332802A31D8310004A802F0D8F85E
:103E180004A8FFF78FFE00260500544903AA02A84C
:103E2800039602F049F8039B9D421FD1504D04A808
:103E3800290002F029FFB04216D02900300002F014
:103E480023FF0378303B092B0AD801F06BFAFEF701
:103E5800C3FF2200022340321178A0640B43137081
:103E68002900002002F010FF012363743969A0685B
:103E780002F0BAF8061E3ED0033E3378242B3AD11E
:103E88002A21300002F08EF8051E34D0437802AAA9
:103E9800137083780021537004A8802201F082FAFD
:103EA800AA1B0332802A26D8310004A802F088F819
:103EB80004A8FFF73FFE002305002C4903AA02A827
:103EC800039301F0F9FF039B9D4214D1284904A8EC
:103ED80002F0DAFE02260500002D0AD0002024494F
:103EE80002F0D2FE0500022E00D1B4E1032E00D16B
:103EF800C3E1012363747969A06802F075F8061EAE
:103F080047D0033E3378242B43D12A21300002F0D6
:103F180049F8051E3DD0437802AA13708378002122
:103F2800537004A8802201F03DFAAA1B0332802AAC
:103F38002FD8310004A802F043F804A8FFF7FAFDCF
:103F480000230500094903AA02A8039301F0B4FF5E
:103F5800039B9D421DD1064F04A8390002F094FE30
:103F68000226050006E0C04678000020C6A5000825
:103F7800C9A50008002D0AD03900002002F084FEEF
:103F88000500022E00D186E1032E00D18FE1012326
:103F980063740021E289A06801F004FA0023A38178
:103FA8000023237425B0F0BD012000F03FFB32E66A
:103FB8003900002002F068FE0500B01E082800D96C
:103FC80074E6FCF7ABF80523304A552D6F7A870065
:103FD8002B78303BDBB2092B22D80A22534369786D
:103FE8003039CB18E375AB78E978303B5343303937
:103FF8005B1823762B79303B5A436B79303BD218C8
:1040080002236276227D1343237509E02B78303B27
:10401800092B05D8280001F085F9FEF7DDFE20629E
:104028000136F6B23FE62800AD49FCF765F80028EE
:1040380009D1206AFFF792FD80231B06C0180823C8
:10404800227DA062DFE72800A649FCF755F8002882
:10405800E6D1206AFFF782FDF1E72B78303B092B88
:10406800DED8280001F05EF9FEF7B6FE6062D7E7F9
:1040780028009D49FCF740F8002809D1606AFFF73D
:104088006DFD80231B06C0181023227DE062BAE76D
:1040980028009649FCF730F80028C1D1606AFFF77C
:1040A8005DFDF1E72B78303B092BB9D8280001F0EA
:1040B8003EF90123227DA075A5E72B78303B092B1B
:1040C800AED8280001F02EF9FEF786FE2022237DC7
:1040D800206398E72B78303B092BA1D8280001F002
:1040E80021F9FEF779FE4022237D60638BE70020EB
:1040F8007F4902F0C9FD019B0500981E082800D9D8
:1041080012E6FCF70BF8052C22314B56707E8D0019
:104118002B78303BDBB2092B21D873436A78303ACD
:10412800D318E375AB78EA78303B7343303A9B1881
:1041380023762B796A79303B7343303A9B18637640
:104148000223227D1343237509E02B78303B092B8A
:1041580005D8280001F0E6F8FEF73EFE2062019B34
:104168000133DBB20193DCE528005D49FBF7C4FFAE
:10417800002809D1206AFFF7F1FC80231B06C0182C
:104188000823227DA062DDE728005649FBF7B4FF2B
:104198000028E4D1206AFFF7E1FCF1E72B78303BF7
:1041A800092BDCD8280001F0BDF8FEF715FE606287
:1041B800D5E728004C49FBF79FFF002809D1606A22
:1041C800FFF7CCFC80231B06C0181023227DE06279
:1041D800B8E728004549FBF78FFF0028BFD1606A80
:1041E800FFF7BCFCF1E72B78303B092BB7D8280048
:1041F80001F098F8FEF7F0FD8023227DA0635B4272
:10420800A0E72B78303B092BA9D8280001F08AF8C1
:10421800FEF7E2FD0123627DE063134363759EE7C9
:104228002B78303BDBB2092B99D873436A78303A44
:10423800D3182377AB78EA78303B7343303A9B182E
:10424800E3762B796A79303B7343303A9B18A3762F
:104258000422237D76E70378303B092B0AD801F046
:1042680061F8FEF7B9FD220001214C321378206570
:104278000B4313700136F6B22EE60378303B092B58
:10428800F8D801F04FF8FEF7A7FD22004C320221C2
:1042980013786065ECE70378303B092B04D801F00C
:1042A80041F8FEF799FDA0650136F6B262E603789B
:1042B800432B06D1220004234C3211780B43137090
:1042C800F2E7462BF0D18421A06DC905FCF73AFD31
:1042D8000849FCF711FC0849FCF7F6FAA065E9E77C
:1042E800CCA5000886A60008E6A50008CEA500080B
:1042F800C9A500080000A04000001041407C70479C
:1043080070B50400257C002D11D12000290002225F
:10431800143001F047F8230040331D701D73290045
:10432800E289A06801F03EF8A581258270BD0120D0
:1043380000F07CF9E6E7031E08D0027D0020920712
:1043480004D50130002901D0DB7D0B707047031EB6
:1043580008D0027D0020920704D50130002901D041
:104368001B7E0B707047031E08D0027D0020920749
:1043780004D50130002901D05B7E0B707047031E05
:1043880008D0027D0020520704D50130002901D051
:104398009B7E0B707047031E08D0027D00205207D9
:1043A80004D50130002901D0DB7E0B707047031E55
:1043B80008D0027D0020520704D50130002901D021
:1043C8001B7F0B707047031E08D0027D0020120768
:1043D80004D50130002901D09B6A0B607047031E89
:1043E80008D0027D0020D20604D50130002901D072
:1043F800DB6A0B607047031E08D0027D002052065E
:1044080004D50130002901D05B6B0B6070470000B8
:1044180001200A4B82B0196C0143196480211A6C7F
:10442800490502400092009ADA6B0A43DA63DB6BB3
:104438000B400193019B02B07047C0460010024038
:10444800FEE7FEE77047704710B500F0DDF810BDD5
:10445800084B1A69D2070CD5022252421A618022EF
:104468000549D20348690304134040228243134399
:104478008B617047004801400008005010B50248A1
:10448800FFF788FB10BDC046CC0200200120704712
:1044980010B500F053FF162303600120404210BD01
:1044A80010B500F04BFF16230360FEE770B50E0051
:1044B80014000025A54201DB200070BD00E000BF0C
:1044C80070550135F6E770B50E0014000025A542B9
:1044D80001DB200070BD705D00E000BF0135F6E72C
:1044E80001204042704780239B0100204B607047A9
:1044F80001207047002070470B4A0C490300891AB5
:104508000B4A10B51068002801D10A4810601068DD
:10451800C3188B4206D900F011FF0C230360012059
:10452800404210BD1360FCE700040000002000209A
:10453800A4030020D8030020704700000D488546DA
:10454800FFF7FAFF0C480D490D4A002302E0D45842
:10455800C4500433C4188C42F9D30A4A0A4C0023C5
:1045680001E013600432A242FBD300F0EDFEFFF736
:1045780095F8FEE70020002000000020A802002097
:1045880090AB0008A8020020D8030020FEE7000036
:1045980070B5104B05001978002901D1012070BDB4
:1045A800FA208000FBF7CEFD0B4B01001868FBF7E3
:1045B800C9FD00F077F8041EF0D1032DEED80200F3
:1045C80001202900404200F043F8044B20001D6000
:1045D800E5E7C046940000209000002098000020E5
:1045E8008023084A5B00116810B50B430320136051
:1045F800FFF7CEFF041E03D1FFF70AFF200010BD0E
:104608000124FBE700200240034A044B11681B7891
:104618005B1813607047C046A80300209400002070
:10462800014B18687047C046A803002070B5040005
:10463800FFF7F6FF0500631C02D0044B1B78E41853
:10464800FFF7EEFF401BA042FAD370BD9400002094
:1046580030B5FF2503242A000440E400A240890164
:104668002940D243A140C3B200280ADBC0240B4B27
:1046780080088000C018A40003591A401143015152
:1046880030BD0F200340083B05489B089B001B18C2
:10469800D86902401143D961F2E7C04600E100E061
:1046A80000ED00E08022431E5204012093420DD207
:1046B800C021074A07485360036A09061B021B0A00
:1046C8000B43036200200723906013607047C046C5
:1046D80010E000E000ED00E00020054B5A6982423E
:1046E80005DA044A9A60044A9A605869C00F70470C
:1046F8000020024023016745AB89EFCD8022044B9F
:10470800120659690A435A615869C043C00F704775
:1047180000200240F8B504008027FFF781FF7F02E0
:104728000619124D2B693B420BD12A69104B110017
:104738001048194028611A4209D00F4B01205960CE
:1047480004E0FFF76DFFB042EBD30320F8BDFFF79D
:1047580067FF80262418F6022B6918003040334280
:10476800F4D0FFF75DFF8442F6D8EEE70020024060
:10477800FA830000FB830000AC030020F7B5174E56
:104788000193337804000D0002200092012B1ED003
:104798000123FA203370002380007360FFF7BAFF0B
:1047A800002812D10E4F012C12D17B6923437B6163
:1047B800009B2B60BFF36F8F019B6B60FA2080001A
:1047C800FFF7A8FF7B69A3437B6100233370FEBD1D
:1047D8002800009905F028FEF0E7C046AC03002049
:1047E80000200240044A05485369C90003401943A0
:1047F800034B1943516170470020024007E0FFFF57
:104808000200010010B5114C1149236802000B4049
:1048180003432360802300209B009A420ED10D4B56
:104828000D49186806235843FBF78CFC8022431C6B
:10483800D200616908001040114200D110BD002B60
:1048480001D0013BF5E70320F8E7C04600700040BF
:10485800FFF9FFFF9000002040420F00F0B5040070
:1048680085B0002823D00368DB0710D423689B0792
:104878005ED423681B0700D5C3E023685B0700D517
:10488800F4E0E369002B00D07AE1002029E0382227
:10489800AF4DAB681340EA68102B0AD1D243930797
:1048A80009D12B689B03E1D56368002BDED1012079
:1048B80017E0082BF5D0802263685202934212D188
:1048C8002A6813432B60FFF7ABFE80270600BF0260
:1048D8002B683B42CAD1FFF7A3FE801B6428F7D997
:1048E800032005B0F0BDA021C9028B4208D1802366
:1048F8002968DB020B432B602B681A432A60E2E726
:104908002A6894490A402A602A6893490A402A601A
:10491800002BD8D1FFF784FE80270600BF022B6842
:104928003B42A3D0FFF77CFE801B6428F7D9D7E76A
:104938003823874DAA681340EA68102B28D1032131
:104948000A40022A26D12A68520502D5E268002ABE
:10495800ADD0696862698148120201400A436A6001
:10496800002B0DD12B687E4A1340226913432B601C
:104978002B687C4A9B045B0FDA4013007A4A136069
:104988007A4B1868FFF704FE002800D171E78EE71C
:10499800002BD8D0E368002B20D02B68704A8027E2
:1049A80013402269FF0013432B6080232A685B00B1
:1049B80013432B60FFF734FE06002B683B4207D0F9
:1049C8006A68636965491B020A4013436B6050E7D4
:1049D800FFF726FE801B0228EFD981E72B68644A7F
:1049E800802713402B60FFF71BFE0600FF002B6893
:1049F8003B4200D13DE7FFF713FE801B0228F6D9A2
:104A08006EE73822524DAB681340182B08D12B6E35
:104A18009B0700D431E7A369002B00D02DE746E7B8
:104A2800A2690123002A10D02A6E022713432B669D
:104A3800FFF7F6FD06002B6E3B4200D01DE7FFF79F
:104A4800EFFD801B0228F6D94AE72A6E02279A430F
:104A58002A66FFF7E5FD06002B6E3B4200D10CE706
:104A6800FFF7DEFD801B0228F6D939E73822384DDA
:104A7800AB681340202B08D1EB6D9B0700D400E7EF
:104A8800A368002B00D0FCE611E780220021EB6B25
:104A980052050091134208D1EB6B1343EB63EB6BA8
:104AA80013400393039B012300938027314E7F001B
:104AB80033683B4215D0A368012B22D1EA6D13431A
:104AC800EB65FFF7ADFD02270600EB6D3B4238D0E2
:104AD800009B012B00D0D4E6EB6B274A1340EB6315
:104AE800CFE633683B433360FFF79AFD01903368A4
:104AF8003B42E0D1FFF794FD019BC01A0228F6D98A
:104B0800EEE6EA6D052B05D1013B1343EB65EA6D33
:104B18000123D4E701218A43EA65EA6D03318A4318
:104B2800EA65002BCDD1FFF77BFD02270600EB6D70
:104B38003B42CDD0FFF774FD104B801B9842F6D94D
:104B4800CEE6FFF76DFD0D4B801B9842BDD9C7E639
:104B580000100240FFFFFEFFFFFFFBFFFF80FFFF8B
:104B6800FFC7FFFF0024F4009000002098000020F9
:104B7800FFFEFFFF00700040FFFFFFEF88130000FB
:104B880038213F4DAA680A40102A53D03D4A022BCB
:104B980038D12B68802713402B60FFF741FD0600B2
:104BA800BF042B683B4227D1616A236AEA680B433A
:104BB800354980260A401343E26AB6041343226B40
:104BC8001343A26A12021343EB6080232A685B0432
:104BD80013432B608023EA685B051343EB60FFF700
:104BE8001FFD04002B68334200D04EE6FFF718FD86
:104BF800001B0228F6D973E6FFF712FD801B022876
:104C0800CFD96DE62B68802613402B60FFF708FD8F
:104C18000400B6042B6818003040334204D1EB6816
:104C28001A4A1340EB605CE6FFF7FAFC001B022807
:104C3800F0D955E6012B00D139E60322EB68216A49
:104C48001A408A4200D032E67022616A1A408A42CB
:104C580000D02CE6FE21A26AC90119401202914235
:104C680000D024E6F822E16A92031A408A4200D072
:104C78001DE6226B5B0F5B07934200D105E616E643
:104C880000100240FFFFFFFE8C80C11FFCFFFEEFFB
:104C9800382370B51E4CA2681A4205D123681D48F6
:104CA8009B045B0FD84070BDA2681A40082A2AD01E
:104CB800A2681A40102A1AD1E368E168DB43490662
:104CC800490F7F2501319B070CD1E36812481B0A65
:104CD8001D40FBF737FAE1686843490F0131FBF7DC
:104CE80031FAE0E7E3680B481B0A1D40F1E7A268C8
:104CF8001A40202A09D0A26800201340182BD2D1CC
:104D0800FA20C001CFE70448CDE780200002CAE7B7
:104D1800001002400024F40000127A00F7B50400E5
:104D28000D00002801D10120FEBD07274A4E336837
:104D38003B408B422AD321688B073BD4CB0748D40E
:104D4800072733683B40AB420AD93368BB432B4340
:104D58003360FFF765FC019033683B40AB426BD191
:104D680023683E4D5B076FD4FFF792FFAB683C4A60
:104D78001B051B0F9B009B581F221340D840394B23
:104D88001860394B1868FFF703FCCDE73368BB435D
:104D98000B433360FFF744FC019033683B40AB4260
:104DA800C9D0FFF73DFC019BC01A304B9842F4D99B
:104DB8000320B9E7294A4B0704D5E0239068DB01B3
:104DC8000343936093682A480340A06803439360B1
:104DD800B4E76268214F012A19D13B689B03A2D529
:104DE8000721BB688B431343BB60FFF719FC019095
:104DF8003823BA681A406368DB009A42A0D0FFF7EC
:104E08000FFC019BC01A194B9842F1D9D0E7022A2E
:104E180003D13B689B01E3D485E7002A03D13B68B3
:104E28005B05DDD47FE70223032A03D1396E1942DB
:104E3800D6D178E7F96DFAE7FFF7F2FB019BC01AC4
:104E48000A4B984288D9B3E7AB680A4A1340E2682C
:104E58001343AB6088E7C0460020024000100240C0
:104E6800E8A50008900000209800002088130000A2
:104E7800FFF0FFFFFF8FFFFFF0B505002B68002054
:104E880085B09B033BD58022484C5205E36B0090CC
:104E9800134208D1E36B1343E363E36B13400393BB
:104EA800039B012300938027414E7F0033683B43D7
:104EB8003360FFF7B5FB019033683B4211D0E26DD8
:104EC800C02311009B003B4E19401A4202D06B6967
:104ED80099424DD1E36D00201E406B691E43E66583
:104EE80006E0FFF79DFB019BC01A0228E4D90320C6
:104EF800009B012B03D1E36B2F4A1340E3632A681D
:104F0800D30706D5032429494B6DA3436C68234373
:104F18004B65930606D52549284C4B6D2340AC6854
:104F280023434B6553040FD520492C694B6D9B00D7
:104F38009B0823434B658023DB059C4204D18023D7
:104F4800CC685B022343CB6013050FD5174A1C4C72
:104F5800536DE96823400B4353658023DB01994275
:104F680004D18023D1685B020B43D36005B0F0BD48
:104F78008023E26DE06D11005B020343E365E36D9E
:104F8800104831400340E365E165D307A2D5FFF738
:104F980047FB07000222E36D13429BD1FFF740FB5A
:104FA800094BC01B9842F5D9A1E7C0460010024042
:104FB80000700040FFFCFFFFFFFFFFEFFFCFFFFF88
:104FC800FF3FFFFFFFFFFEFF88130000F7B5020059
:104FD80000270C682000F84000D1FEBD0120230006
:104FE800B8400340044233D048680324844618007C
:104FF800654658434443013DE443012D0BD88D6871
:105008009668454326403543CE6895605E435568AB
:105018009D43354355600D69D66845432640354361
:10502800D5606546022D0DD14D690195FF2B11D82C
:1050380003000F2543435D43166AAE43019D6B434E
:105048001E4316621368234064466043034313609B
:105058000137BEE70F261B0A5B435B435E43556A75
:10506800B543019E73431D435562EBE7054B064A62
:105078009B681B051B0F9B009B581F221340D840A1
:105088007047C04600100240E8A50008054B064AD4
:105098009B685B045B0F9B009B581F221340D84002
:1050A8007047C0460010024028A600083821154B5A
:1050B80010B59A680A40082A21D0102A19D1D86850
:1050C8000D3A10400338421E90410F4A40421040AA
:1050D8008018DA68D968DC68490653045B0E490F02
:1050E80001315843FBF72EF8610F0131FBF72AF81D
:1050F80010BD1B6805489B045B0FD840F8E70248C1
:10510800F6E7C0460010024000127A000024F400BE
:1051180010B50400FFF7CAFF2060FFF7A7FF606023
:10512800FFF7B4FFA06010BD030010B50020032BEB
:1051380010D1154A506D0340C02080021843134B0C
:10514800984208D0124B98420ED0124B984214D174
:10515800FFF7ACFF10BD126880231000DB00184079
:105168001A42F7D00C48F5E7D26D02231000184018
:105178001A42EFD080200002ECE7FFF797FFFFF715
:1051880075FFFFF783FFE5E7001002400200030008
:1051980003000300010003000024F400194A10B5BD
:1051A8000368904202D0184CA04208D17024A3434F
:1051B8004C68234390420BD0134CA04208D0134CA8
:1051C800A04205D0124CA04202D0124CA04203D1FA
:1051D800114C2340CC68234303608B68C3620B885F
:1051E8008362904205D00A4B984202D0094B9842FC
:1051F80001D10B6903630123426913434361002012
:1052080010BDC046002C01400004004000200040B2
:105218000044014000480140FFFCFFFFF0B50126B3
:10522800036804000D0085B0334248D18B680969D2
:1052380002680B4369690B43E9690B4327490A4034
:10524800134303604368264A1340EA6813434360E4
:105258008368244A1340AA6913438360224B984207
:1052680022D10320FFF760FF002820D06F68002FAD
:105278001DD02B6800260B2B1AD81C4A9B00995866
:10528800FAF760FF8022E9697B08120291421ED179
:105298004000C0183900FAF755FF154B03400007C6
:1052A800400F1843E06003E0124B98420AD00126F1
:1052B8000F22E16A2B6891439BB20B43E3623000F3
:1052C80005B0F0BD01A8FFF723FF0398CCE739002C
:1052D800C018FAF737FF80B2E4E7C046F369FFEF7A
:1052E800FFCFFFFFFFFCFFFF0038014048A6000882
:1052F800F0FF000000440040094A82B0136801939F
:10530800019B431C591E8B41C01880235B02002857
:1053180001D102B0704711681942F8D00138F6E798
:1053280010E000E010B5002101F0A0FC10BD10B5A0
:105338000A22002101F09EFD10BD0000014B1868F3
:105348007047C0469C00002070B500260C4D0D4CDF
:10535800641BA410A64209D1002605F057F80A4D8F
:105368000A4C641BA410A64205D170BDB300EB58CB
:1053780098470136EEE7B300EB5898470136F2E755
:1053880088AB000888AB000888AB00088CAB000825
:1053980010B5034B0100186800F078F810BDC0463E
:1053A8009C00002003008218934200D170471970B6
:1053B8000133F9E770B50500002910D00C1F2368E8
:1053C800002B00DAE418280003F00CF81D4A1368D3
:1053D800002B05D163601460280003F00BF870BD42
:1053E800A34208D9216860188342F3D118685B6822
:1053F80041182160EEE71A005B68002B01D0A34238
:10540800F9D911685018A0420BD120680918501812
:1054180011608342E0D118685B68411811605360DD
:10542800DAE7A04202D90C232B60D5E7216860187F
:10543800834203D118685B68411821606360546037
:10544800CAE7C046C803002070B50F4E0D0031688A
:105458000400002902D100F0FDFC30602900200082
:1054680000F0F8FC431C0AD00323C51C9D43A84246
:1054780007D0291A200000F0EDFC431C01D10125BA
:105488006D42280070BDC046CC030020F7B503224A
:10549800CB1C9343083306001F000C2B32D20C2779
:1054A800B94231D8300002F09DFF324D2B681C0004
:1054B800002C2ED139003000FFF7C6FF0400431C32
:1054C8001ED12C682500002D4AD123682900E31835
:1054D8003000019300F0BEFC019B834243D1236856
:1054E8000337FF1A03239F4308370C2F00D20C27DA
:1054F80039003000FFF7A8FF431C34D02368DF19B8
:10550800276013E0002BCBDA0C230025336028003A
:10551800FEBD2268D11B20D40B2917D9E2192760B8
:10552800A34211D12A6063681160536030002500DE
:1055380002F060FF07220B35231D9543EA1A9D42AE
:10554800E5D05B1BA350E2E75A60ECE76268A34230
:1055580001D12A60EAE75A60E8E723006468A7E710
:105568002C006D68AFE70C233000336002F042FF77
:10557800CDE7C046C8030020F0B51E000023140084
:105588008BB09E4204DA8021090673181E002D2371
:10559800129A149F1370202303229F43462F07D08B
:1055A8003B00453B59424B411099013ACB181093A7
:1055B80009AB049308AB0393139B00920293109BCF
:1055C80022000193330001F031FD0500472F02D17D
:1055D800119BDB0728D5109BEB180793462F14D196
:1055E8002B78302B0CD10022002320003100FAF751
:1055F8002FFF002804D10123109A9B1A139A1360D5
:10560800139B079A1B68D3180793002200232000D6
:105618003100FAF71DFF002801D0079B09933022BB
:10562800099B07998B4206D32800099B159A5B1B97
:1056380013600BB0F0BD591C09911A70F0E7F0B572
:10564800831C87B0039305000C002B2302700029EC
:1056580001DA4C4202336B70092C31DD0A2704ABA6
:10566800DE1D200039000196FAF7DCFE013E3031DC
:105678002000317039000294FAF7EEFD029B040015
:10568800632BEEDC019B30349A1E130003991470CF
:1056980004A8073098420ED804AB073300209A427A
:1056A80004D804AB0930C018019BC01A039B181812
:1056B800401B07B0F0BD1878013308700131E7E7E7
:1056C8003023E418AB70281DEC70F1E7F0B595B005
:1056D8000C0009921E001A9D070002F045FE03689F
:1056E80018000C93FAF712FD00231293237E072269
:1056F8000A9323680E900D930D992B68C90547D519
:105708009B1893431A0008322A601A685B68A264DF
:10571800E3640122A36CE56C0B936B005B080F93A9
:105728000B98A74B0F995242FDF764FA002831D124
:105738000122A34B0B980F995242FAF799FE0028C1
:1057480028D10022002329000B98FAF787FE0028A9
:1057580003D023002D2243331A700A9B994D472BFF
:1057680000D9994D03230D9A236101339A430023ED
:1057780022600B93099B21003800009613AA00F0C1
:10578800E7F9431C00D0A2E00120404215B0F0BD6B
:105798000733B6E70B9A2B0010002900FDF72AFA09
:1057A80000280BD0002D03DA23002D2243331A7072
:1057B8000A9B864D472BD5D9854DD3E720220A99D8
:1057C800636891430F915A1C49D107336360802362
:1057D8000D9ADB0013430022069212AA05920A9A38
:1057E80008A9049211AA03922322236001936368F3
:1057F80052180292009338002B000B9AFFF7BCFE58
:105808000F9B05001199472B08D1CB1C02DB63685D
:10581800994248DD0A9B023BDBB20A930A9B652B3F
:1058280024D820001A00013950301191FFF707FFE2
:10583800129A0B9013182361012A02DC2268D207FE
:1058480001D501332361232308AA9B181B78002B59
:1058580000D18FE723002D2243331A708AE70F9A6D
:10586800472AB4D1002BB2D10133AFE70A9B662B8C
:105878001BD1636800290DDD2161002B02D122684C
:10588800D20702D5013359182161119BA365002362
:105898000B93D8E7002B03D101222168114200D0D5
:1058A8009A1C2261F1E767230A93119B129A93428B
:1058B80006DB22682361D207E7D501332361E4E7D9
:1058C8000121002B01DC4918C91A5218E9E722689E
:1058D800530507D423692A0038000999B047431CA7
:1058E80028D151E70A9B652B00D8E1E0A06CE16C58
:1058F80000220023FAF7ACFD002831D0012338003C
:10590800344A0999B047431C00D13DE7119B129ACC
:10591800934202DB2368DB070CD538000E9B0C9AF8
:105928000999B0470025431C00D12DE7129B013B84
:10593800AB420ADC23689B0700D506E1139BE068AD
:10594800984200DB22E7180020E7220001233800F4
:1059580009991A32B047431C00D115E70135E5E72C
:10596800119B002B38DC012338001A4A0999B047EB
:10597800431C00D108E7119B129A134302D12368F4
:10598800DB07D7D50E9B38000C9A0999B047431C02
:1059980000D1F9E600230A93119B0A9A5B429342CD
:1059A80001DC129B97E722000123380009991A327B
:1059B800B047431C00D1E7E60A9B0133EBE7C0463A
:1059C800FFFFEF7F7CA6000880A6000884A60008D9
:1059D80088A6000811AB0008129AA36D0A929A4291
:1059E80000DD0A930A9B002B3CDC00230D930A9BE5
:1059F800DB43DB170F93A36D0F9A0B930A9B13409E
:105A08000B9AD31A0D9A934234DC119B129A934243
:105A18003DDB2368DB073AD4129A0B9B1199D31A02
:105A2800521A0A929A4200DD0A930A9B002B36DC2E
:105A38000A9B0025DB43DB170B93119A129B0B99EA
:105A48009B1A0A9A0A409B1AAB4200DC72E72200B2
:105A58000123380009991A32B047431C00D193E654
:105A68000135EAE70A9B2A0038000999B047431C28
:105A7800BBD189E622000123380009991A32B047C0
:105A8800431C00D180E60D9B01330D93B3E70E9BB9
:105A980038000C9A0999B047431CBDD174E60B9B9A
:105AA8003800EA1809990A9BB047431CC0D16BE635
:105AB800129B012B02DC01231A4234D001232A0055
:105AC80038000999B047431C00D15DE60E9B3800A9
